:100000000C942A000C9434000C9434000C943400AA
:100010000C9434000C9434000C9434000C94340090
:100020000C9434000C9434000C9434000C94340080
:100030000C9434000C9434000C9434000C94340070
:100040000C9434000C9434000C9434000C94340060
:100050000C94340011241FBECFE5D8E0DEBFCDBF25
:100060000E94A3000C940F020C94000041E060E099
:1000700083E00E94C60041E061E083E00E94C60088
:1000800041E063E083E00E94C60041E064E083E079
:100090000E94C600089541E061E083E00E944901AA
:1000A00040E060E083E00E944901089540E060E0A4
:1000B00083E00E94490140E061E083E00E94490141
:1000C000089541E063E083E00E94490140E064E07C
:1000D00083E00E944901089540E063E083E00E94CC
:1000E000490140E064E083E00E94490108950E94D4
:1000F0004B000E946C0008950E9461000E9456000F
:100100000895CF93DF931F92CDB7DEB7AE014F5F57
:100110005F4F66E083E00E94CC0189810F90DF9100
:10012000CF910895CF93DF931F92CDB7DEB7AE0185
:100130004F5F5F4F67E083E00E94CC0189810F90A1
:10014000DF91CF9108950E9436000E948100C82F50
:100150000E949200C11107C0811105C00E944B008E
:100160000E946100F2CFC11105C0813019F40E94D4
:100170007700EBCFC13029F4811103C00E947C00CD
:10018000E4CF0E9456000E946C00DFCF683008F078
:1001900078C04130C1F5813091F028F08230D9F03B
:1001A000833029F170C02AB381E090E002C0880F4B
:1001B000991F6A95E2F7822B8ABB80E0089527B3E6
:1001C00081E090E002C0880F991F6A95E2F7822BC8
:1001D00087BB80E0089524B381E090E002C0880FDF
:1001E000991F6A95E2F7822B84BB80E0089521B3C2
:1001F00081E090E002C0880F991F6A95E2F7822B98
:1002000081BB80E00895411140C0813099F028F011
:100210008230E9F0833041F13AC02AB381E090E0C6
:1002200002C0880F991F6A95E2F7809582238ABBE6
:1002300080E0089527B381E090E002C0880F991F05
:100240006A95E2F78095822387BB80E0089524B306
:1002500081E090E002C0880F991F6A95E2F78095CF
:10026000822384BB80E0089521B381E090E002C046
:10027000880F991F6A95E2F78095822381BB80E001
:10028000089581E0089581E0089581E0089581E076
:100290000895683008F078C04130C1F5813091F0A0
:1002A00028F08230D9F0833029F170C02BB381E07F
:1002B00090E002C0880F991F6A95E2F7822B8BBBF2
:1002C00080E0089528B381E090E002C0880F991F74
:1002D0006A95E2F7822B88BB80E0089525B381E020
:1002E00090E002C0880F991F6A95E2F7822B85BBC8
:1002F00080E0089522B381E090E002C0880F991F4A
:100300006A95E2F7822B82BB80E00895411140C0DC
:10031000813099F028F08230E9F0833041F13AC021
:100320002BB381E090E002C0880F991F6A95E2F735
:10033000809582238BBB80E0089528B381E090E014
:1003400002C0880F991F6A95E2F78095822388BBC7
:1003500080E0089525B381E090E002C0880F991FE6
:100360006A95E2F78095822385BB80E0089522B3E9
:1003700081E090E002C0880F991F6A95E2F78095AE
:10038000822382BB80E0089581E0089581E0089592
:1003900081E0089581E008956830D8F54115510550
:1003A000D1F1813091F028F08230D9F0833029F1F9
:1003B00034C089B390E002C0959587956A95E2F7BD
:1003C0008170FA01808380E0089586B390E002C0D6
:1003D000959587956A95E2F78170FA01808380E0B0
:1003E000089583B390E002C0959587956A95E2F7EA
:1003F0008170FA01808380E0089580B390E002C0AC
:10040000959587956A95E2F78170FA01808380E07F
:10041000089581E0089581E0089581E00895F894B9
:02042000FFCF0C
:00000001FF
